{
  "_format": "hh-sol-artifact-1",
  "contractName": "Claims",
  "sourceName": "contracts/Uniswap/V4-Core/Claims.sol",
  "abi": [
    {
      "inputs": [],
      "name": "InsufficientBalance",
      "type": "error"
    },
    {
      "inputs": [],
      "name": "InvalidAddress",
      "type": "error"
    },
    {
      "anonymous": false,
      "inputs": [
        {
          "indexed": true,
          "internalType": "address",
          "name": "from",
          "type": "address"
        },
        {
          "indexed": true,
          "internalType": "Currency",
          "name": "currency",
          "type": "address"
        },
        {
          "indexed": false,
          "internalType": "uint256",
          "name": "amount",
          "type": "uint256"
        }
      ],
      "name": "Burn",
      "type": "event"
    },
    {
      "anonymous": false,
      "inputs": [
        {
          "indexed": true,
          "internalType": "address",
          "name": "to",
          "type": "address"
        },
        {
          "indexed": true,
          "internalType": "Currency",
          "name": "currency",
          "type": "address"
        },
        {
          "indexed": false,
          "internalType": "uint256",
          "name": "amount",
          "type": "uint256"
        }
      ],
      "name": "Mint",
      "type": "event"
    },
    {
      "anonymous": false,
      "inputs": [
        {
          "indexed": true,
          "internalType": "address",
          "name": "from",
          "type": "address"
        },
        {
          "indexed": true,
          "internalType": "address",
          "name": "to",
          "type": "address"
        },
        {
          "indexed": true,
          "internalType": "Currency",
          "name": "currency",
          "type": "address"
        },
        {
          "indexed": false,
          "internalType": "uint256",
          "name": "amount",
          "type": "uint256"
        }
      ],
      "name": "Transfer",
      "type": "event"
    },
    {
      "inputs": [
        {
          "internalType": "address",
          "name": "account",
          "type": "address"
        },
        {
          "internalType": "Currency",
          "name": "currency",
          "type": "address"
        }
      ],
      "name": "balanceOf",
      "outputs": [
        {
          "internalType": "uint256",
          "name": "",
          "type": "uint256"
        }
      ],
      "stateMutability": "view",
      "type": "function"
    },
    {
      "inputs": [
        {
          "internalType": "address",
          "name": "to",
          "type": "address"
        },
        {
          "internalType": "Currency",
          "name": "currency",
          "type": "address"
        },
        {
          "internalType": "uint256",
          "name": "amount",
          "type": "uint256"
        }
      ],
      "name": "transfer",
      "outputs": [],
      "stateMutability": "nonpayable",
      "type": "function"
    }
  ],
  "bytecode": "0x608060405234801561001057600080fd5b50610285806100206000396000f3fe608060405234801561001057600080fd5b50600436106100365760003560e01c8063beabacc81461003b578063f7888aec14610050575b600080fd5b61004e6100493660046101b4565b610075565b005b61006361005e3660046101f5565b610171565b60405190815260200160405180910390f35b306001600160a01b0384160361009e5760405163e6c4247b60e01b815260040160405180910390fd5b6001600160a01b0382166000908152602081815260408083203384529091529020548111156100e057604051631e9acf1760e31b815260040160405180910390fd5b6001600160a01b03828116600090815260208181526040808320338452909152808220805485900390559185168152908120805483929061012290849061022e565b90915550506040518181526001600160a01b03808416919085169033907fd1398bee19313d6bf672ccb116e51f4a1a947e91c757907f51fbb5b5e56c698f9060200160405180910390a4505050565b6001600160a01b03808216600090815260208181526040808320938616835292905220545b92915050565b6001600160a01b03811681146101b157600080fd5b50565b6000806000606084860312156101c957600080fd5b83356101d48161019c565b925060208401356101e48161019c565b929592945050506040919091013590565b6000806040838503121561020857600080fd5b82356102138161019c565b915060208301356102238161019c565b809150509250929050565b8082018082111561019657634e487b7160e01b600052601160045260246000fdfea2646970667358221220304e2768c4ce451247346378cc0cfcfe978cb8e42b3b8b8df3702183049d6c0164736f6c63430008140033",
  "linkReferences": {},
  "deployedLinkReferences": {}
}