{
  "_format": "hh-sol-artifact-1",
  "contractName": "Owned",
  "sourceName": "contracts/Uniswap/V4-Core/Owned.sol",
  "abi": [
    {
      "inputs": [],
      "stateMutability": "nonpayable",
      "type": "constructor"
    },
    {
      "inputs": [],
      "name": "InvalidCaller",
      "type": "error"
    },
    {
      "anonymous": false,
      "inputs": [
        {
          "indexed": true,
          "internalType": "address",
          "name": "oldOwner",
          "type": "address"
        },
        {
          "indexed": true,
          "internalType": "address",
          "name": "newOwner",
          "type": "address"
        }
      ],
      "name": "OwnerChanged",
      "type": "event"
    },
    {
      "inputs": [],
      "name": "owner",
      "outputs": [
        {
          "internalType": "address",
          "name": "",
          "type": "address"
        }
      ],
      "stateMutability": "view",
      "type": "function"
    },
    {
      "inputs": [
        {
          "internalType": "address",
          "name": "_owner",
          "type": "address"
        }
      ],
      "name": "setOwner",
      "outputs": [],
      "stateMutability": "nonpayable",
      "type": "function"
    }
  ],
  "bytecode": "0x608060405234801561001057600080fd5b50600080546001600160a01b0319163390811782556040519091907fb532073b38c83145e3e5135377a08bf9aab55bc0fd7c1179cd4fb995d2a5159c908290a361016b8061005f6000396000f3fe608060405234801561001057600080fd5b50600436106100365760003560e01c806313af40351461003b5780638da5cb5b14610050575b600080fd5b61004e610049366004610105565b61007f565b005b600054610063906001600160a01b031681565b6040516001600160a01b03909116815260200160405180910390f35b6000546001600160a01b031633146100aa576040516348f5c3ed60e01b815260040160405180910390fd5b600080546040516001600160a01b03808516939216917fb532073b38c83145e3e5135377a08bf9aab55bc0fd7c1179cd4fb995d2a5159c91a3600080546001600160a01b0319166001600160a01b0392909216919091179055565b60006020828403121561011757600080fd5b81356001600160a01b038116811461012e57600080fd5b939250505056fea2646970667358221220513f322650fe11c310f6a0beedd52b575261480004a28d5d53ffec02c35bff5f64736f6c63430008140033",
  "linkReferences": {},
  "deployedLinkReferences": {}
}