{
  "_format": "hh-sol-artifact-1",
  "contractName": "UniswapInteract",
  "sourceName": "contracts/UniswapInteract.sol",
  "abi": [
    {
      "inputs": [
        {
          "internalType": "contract IPoolManager",
          "name": "_poolManager",
          "type": "address"
        }
      ],
      "stateMutability": "nonpayable",
      "type": "constructor"
    },
    {
      "inputs": [],
      "name": "OnlyPoolManager",
      "type": "error"
    },
    {
      "inputs": [
        {
          "components": [
            {
              "internalType": "Currency",
              "name": "currency0",
              "type": "address"
            },
            {
              "internalType": "Currency",
              "name": "currency1",
              "type": "address"
            },
            {
              "internalType": "uint24",
              "name": "fee",
              "type": "uint24"
            },
            {
              "internalType": "int24",
              "name": "tickSpacing",
              "type": "int24"
            },
            {
              "internalType": "contract IHooks",
              "name": "hooks",
              "type": "address"
            }
          ],
          "internalType": "struct PoolKey",
          "name": "poolKey",
          "type": "tuple"
        },
        {
          "components": [
            {
              "internalType": "int24",
              "name": "tickLower",
              "type": "int24"
            },
            {
              "internalType": "int24",
              "name": "tickUpper",
              "type": "int24"
            },
            {
              "internalType": "int256",
              "name": "liquidityDelta",
              "type": "int256"
            }
          ],
          "internalType": "struct IPoolManager.ModifyPositionParams",
          "name": "modifyLiquidtyParams",
          "type": "tuple"
        },
        {
          "internalType": "uint256",
          "name": "deadline",
          "type": "uint256"
        }
      ],
      "name": "addLiquidity",
      "outputs": [
        {
          "internalType": "uint256",
          "name": "",
          "type": "uint256"
        },
        {
          "internalType": "uint256",
          "name": "",
          "type": "uint256"
        }
      ],
      "stateMutability": "payable",
      "type": "function"
    },
    {
      "inputs": [
        {
          "components": [
            {
              "internalType": "Currency",
              "name": "currency0",
              "type": "address"
            },
            {
              "internalType": "Currency",
              "name": "currency1",
              "type": "address"
            },
            {
              "internalType": "uint24",
              "name": "fee",
              "type": "uint24"
            },
            {
              "internalType": "int24",
              "name": "tickSpacing",
              "type": "int24"
            },
            {
              "internalType": "contract IHooks",
              "name": "hooks",
              "type": "address"
            }
          ],
          "internalType": "struct PoolKey",
          "name": "poolKey",
          "type": "tuple"
        },
        {
          "internalType": "int24",
          "name": "tickLower",
          "type": "int24"
        },
        {
          "internalType": "int24",
          "name": "tickUpper",
          "type": "int24"
        },
        {
          "internalType": "uint256",
          "name": "deadline",
          "type": "uint256"
        }
      ],
      "name": "closePosition",
      "outputs": [
        {
          "internalType": "int128",
          "name": "",
          "type": "int128"
        },
        {
          "internalType": "int128",
          "name": "",
          "type": "int128"
        }
      ],
      "stateMutability": "payable",
      "type": "function"
    },
    {
      "inputs": [
        {
          "components": [
            {
              "internalType": "Currency",
              "name": "currency0",
              "type": "address"
            },
            {
              "internalType": "Currency",
              "name": "currency1",
              "type": "address"
            },
            {
              "internalType": "uint24",
              "name": "fee",
              "type": "uint24"
            },
            {
              "internalType": "int24",
              "name": "tickSpacing",
              "type": "int24"
            },
            {
              "internalType": "contract IHooks",
              "name": "hooks",
              "type": "address"
            }
          ],
          "internalType": "struct PoolKey",
          "name": "poolKey",
          "type": "tuple"
        },
        {
          "internalType": "uint256",
          "name": "amount0",
          "type": "uint256"
        },
        {
          "internalType": "uint256",
          "name": "amount1",
          "type": "uint256"
        },
        {
          "internalType": "uint256",
          "name": "deadline",
          "type": "uint256"
        }
      ],
      "name": "donate",
      "outputs": [
        {
          "internalType": "uint256",
          "name": "",
          "type": "uint256"
        },
        {
          "internalType": "uint256",
          "name": "",
          "type": "uint256"
        }
      ],
      "stateMutability": "payable",
      "type": "function"
    },
    {
      "inputs": [
        {
          "components": [
            {
              "internalType": "Currency",
              "name": "currency0",
              "type": "address"
            },
            {
              "internalType": "Currency",
              "name": "currency1",
              "type": "address"
            },
            {
              "internalType": "uint24",
              "name": "fee",
              "type": "uint24"
            },
            {
              "internalType": "int24",
              "name": "tickSpacing",
              "type": "int24"
            },
            {
              "internalType": "contract IHooks",
              "name": "hooks",
              "type": "address"
            }
          ],
          "internalType": "struct PoolKey",
          "name": "poolKey",
          "type": "tuple"
        }
      ],
      "name": "getID",
      "outputs": [
        {
          "internalType": "PoolId",
          "name": "",
          "type": "bytes32"
        }
      ],
      "stateMutability": "pure",
      "type": "function"
    },
    {
      "inputs": [
        {
          "internalType": "int24",
          "name": "currentTick",
          "type": "int24"
        },
        {
          "internalType": "int24",
          "name": "lowerTick",
          "type": "int24"
        },
        {
          "internalType": "int24",
          "name": "upperTick",
          "type": "int24"
        },
        {
          "internalType": "uint256",
          "name": "amount0",
          "type": "uint256"
        },
        {
          "internalType": "uint256",
          "name": "amount1",
          "type": "uint256"
        }
      ],
      "name": "getLiquidityAmount",
      "outputs": [
        {
          "internalType": "uint128",
          "name": "",
          "type": "uint128"
        }
      ],
      "stateMutability": "pure",
      "type": "function"
    },
    {
      "inputs": [
        {
          "internalType": "bytes",
          "name": "data",
          "type": "bytes"
        }
      ],
      "name": "lockAcquired",
      "outputs": [
        {
          "internalType": "bytes",
          "name": "res",
          "type": "bytes"
        }
      ],
      "stateMutability": "nonpayable",
      "type": "function"
    },
    {
      "inputs": [],
      "name": "poolManager",
      "outputs": [
        {
          "internalType": "contract IPoolManager",
          "name": "",
          "type": "address"
        }
      ],
      "stateMutability": "view",
      "type": "function"
    },
    {
      "inputs": [
        {
          "components": [
            {
              "internalType": "Currency",
              "name": "currency0",
              "type": "address"
            },
            {
              "internalType": "Currency",
              "name": "currency1",
              "type": "address"
            },
            {
              "internalType": "uint24",
              "name": "fee",
              "type": "uint24"
            },
            {
              "internalType": "int24",
              "name": "tickSpacing",
              "type": "int24"
            },
            {
              "internalType": "contract IHooks",
              "name": "hooks",
              "type": "address"
            }
          ],
          "internalType": "struct PoolKey",
          "name": "poolKey",
          "type": "tuple"
        },
        {
          "components": [
            {
              "internalType": "bool",
              "name": "zeroForOne",
              "type": "bool"
            },
            {
              "internalType": "int256",
              "name": "amountSpecified",
              "type": "int256"
            },
            {
              "internalType": "uint160",
              "name": "sqrtPriceLimitX96",
              "type": "uint160"
            }
          ],
          "internalType": "struct IPoolManager.SwapParams",
          "name": "swapParams",
          "type": "tuple"
        },
        {
          "internalType": "uint256",
          "name": "deadline",
          "type": "uint256"
        }
      ],
      "name": "swap",
      "outputs": [
        {
          "internalType": "int256",
          "name": "",
          "type": "int256"
        },
        {
          "internalType": "int256",
          "name": "",
          "type": "int256"
        }
      ],
      "stateMutability": "payable",
      "type": "function"
    }
  ],
  "bytecode": "0x608060405234801561001057600080fd5b50604051620022263803806200222683398101604081905261003191610056565b600080546001600160a01b0319166001600160a01b0392909216919091179055610086565b60006020828403121561006857600080fd5b81516001600160a01b038116811461007f57600080fd5b9392505050565b61219080620000966000396000f3fe60806040526004361061006b5760003560e01c806349edae4c146100705780634ff490fb146100a35780637a54f20a146100d0578063aad5c5d8146100f8578063ab6291fe14610130578063dc4c90d31461015d578063e7d7146b1461018a578063f5ea597c1461019d575b600080fd5b34801561007c57600080fd5b5061009061008b366004611941565b6101b0565b6040519081526020015b60405180910390f35b6100b66100b1366004611975565b6101c1565b60408051600f93840b81529190920b60208201520161009a565b6100e36100de3660046119c6565b6103a7565b6040805192835260208301919091520161009a565b34801561010457600080fd5b50610118610113366004611a01565b6104a2565b6040516001600160801b03909116815260200161009a565b34801561013c57600080fd5b5061015061014b366004611a5c565b6104d5565b60405161009a9190611b1e565b34801561016957600080fd5b5060005461017d906001600160a01b031681565b60405161009a9190611b31565b6100e3610198366004611b57565b61099d565b6100e36101ab366004611b57565b610a85565b60006101bb82610b87565b92915050565b60008054819081906001600160a01b03166333aa955b6101ee6101e9368b90038b018b611941565b610b87565b6040516001600160e01b031960e084901b1681526004810191909152306024820152600289810b604483015288900b6064820152608401602060405180830381865afa158015610242573d6000803e3d6000fd5b505050506040513d601f19601f820116820180604052508101906102669190611b97565b905060405180606001604052808760020b81526020018660020b81526020018261028f90611bd6565b600f0b9052600780546000908152600260209081526040808320855181548785015162ffffff90811663010000000265ffffffffffff199092169216919091171781559481015160019095019490945581549254935191936001600160a01b039093169263815483199261030b9233928e9288928d9101611c75565b6040516020818303038152906040526040518263ffffffff1660e01b81526004016103369190611b1e565b6000604051808303816000875af1158015610355573d6000803e3d6000fd5b505050506040513d6000823e601f3d908101601f1916820160405261037d9190810190611cb3565b9050600080828060200190518101906103969190611d67565b909b909a5098505050505050505050565b60408051808201825284815260208082018590526009546000908152600590915291822082916103d991906002611807565b50600080546009546040516001600160a01b039092169163815483199161040c9133918c91600291908b90602001611c75565b6040516020818303038152906040526040518263ffffffff1660e01b81526004016104379190611b1e565b6000604051808303816000875af1158015610456573d6000803e3d6000fd5b505050506040513d6000823e601f3d908101601f1916820160405261047e9190810190611cb3565b9050808060200190518101906104949190611d9a565b925092505094509492505050565b60006104c96104b087610bb7565b6104b987610bb7565b6104c287610bb7565b8686610fd4565b90505b95945050505050565b6000546060906001600160a01b031633146105035760405163f655705d60e01b815260040160405180910390fd5b60008080808061051587890189611dbe565b945094509450945094508042111561052c57600080fd5b6000836000036106215760008054848252600260205260409182902091516330d7224d60e11b81526001600160a01b03909116916361ae449a91610574918991600401611e68565b6020604051808303816000875af1158015610593573d6000803e3d6000fd5b505050506040513d601f19601f820116820180604052508101906105b79190611eab565b905060006105c58260801c90565b600f0b13156105ee5784516105ee9087306105e08560801c90565b6001600160801b031661108c565b600081600f0b131561060b5761060b856020015187306105e08590565b6007805490600061061b83611ec4565b91905055505b836001036107355760008054848252600460208190526040928390209251633cf3645360e21b81526001600160a01b039092169263f3cd914c92610668928a929101611edd565b6020604051808303816000875af1158015610687573d6000803e3d6000fd5b505050506040513d601f19601f820116820180604052508101906106ab9190611eab565b905060006106b98260801c90565b600f0b13156106d45784516106d49087306105e08560801c90565b600081600f0b13156106f1576106f1856020015187306105e08590565b61071f6040518060400160405280600d81526020016c5377617070696e67206865726560981b8152506110fd565b6008805490600061072f83611ec4565b91905055505b83600203610824576000805484825260056020526040918290208054600190910154925163234266d760e01b81526001600160a01b039092169263234266d792610785928a929091600401611f28565b6020604051808303816000875af11580156107a4573d6000803e3d6000fd5b505050506040513d601f19601f820116820180604052508101906107c89190611eab565b905060006107d68260801c90565b600f0b13156107f15784516107f19087306105e08560801c90565b600081600f0b131561080e5761080e856020015187306105e08590565b6009805490600061081e83611ec4565b91905055505b8451610839906108348360801c90565b611143565b61084885602001516108348390565b83600214610961576108d78686600001516001600160a01b03166370a08231306040518263ffffffff1660e01b81526004016108849190611b31565b602060405180830381865afa1580156108a1573d6000803e3d6000fd5b505050506040513d601f19601f820116820180604052508101906108c59190611eab565b87516001600160a01b03169190611306565b6109618686602001516001600160a01b03166370a08231306040518263ffffffff1660e01b815260040161090b9190611b31565b602060405180830381865afa158015610928573d6000803e3d6000fd5b505050506040513d601f19601f8201168201806040525081019061094c9190611eab565b60208801516001600160a01b03169190611306565b61096b8160801c90565b60408051600f92830b60208201529290910b828201528051808303820181526060909201905298975050505050505050565b6008546000908152600460205260408120819084906109bc8282611f6c565b5050600080546008546040516001600160a01b03909216916381548319916109f09133918b91600191908b90602001611c75565b6040516020818303038152906040526040518263ffffffff1660e01b8152600401610a1b9190611b1e565b6000604051808303816000875af1158015610a3a573d6000803e3d6000fd5b505050506040513d6000823e601f3d908101601f19168201604052610a629190810190611cb3565b905080806020019051810190610a789190611d9a565b9250925050935093915050565b600754600090815260026020526040812081908490610aa48282611fc4565b50503360009081526006602090815260409182902082516060810190935291908190610ad29088018861201f565b60020b8152602001866020016020810190610aed919061201f565b60020b8152602001610b0761008b368a90038a018a611941565b905281546001818101845560009384526020808520845160029094020180548286015162ffffff90811663010000000265ffffffffffff199092169516949094179390931783556040938401519290910191909155825460075492516001600160a01b03909116926381548319926109f09233928c9288928c9101611c75565b600081604051602001610b9a919061203c565b604051602081830303815290604052805190602001209050919050565b60008060008360020b12610bce578260020b610bdb565b8260020b610bdb9061204a565b9050610bea620d89e719612066565b62ffffff16811115610c275760405162461bcd60e51b81526020600482015260016024820152601560fa1b60448201526064015b60405180910390fd5b600081600116600003610c3e57600160801b610c50565b6ffffcb933bd6fad37aa2d162d1a5940015b6001600160881b031690506002821615610c85576080610c80826ffff97272373d413259a46990580e213a61207f565b901c90505b6004821615610caf576080610caa826ffff2e50f5f656932ef12357cf3c7fdcc61207f565b901c90505b6008821615610cd9576080610cd4826fffe5caca7e10e4e61c3624eaa0941cd061207f565b901c90505b6010821615610d03576080610cfe826fffcb9843d60f6159c9db58835c92664461207f565b901c90505b6020821615610d2d576080610d28826fff973b41fa98c081472e6896dfb254c061207f565b901c90505b6040821615610d57576080610d52826fff2ea16466c96a3843ec78b326b5286161207f565b901c90505b6080821615610d81576080610d7c826ffe5dee046a99a2a811c461f1969c305361207f565b901c90505b610100821615610dac576080610da7826ffcbe86c7900a88aedcffc83b479aa3a461207f565b901c90505b610200821615610dd7576080610dd2826ff987a7253ac413176f2b074cf7815e5461207f565b901c90505b610400821615610e02576080610dfd826ff3392b0822b70005940c7a398e4b70f361207f565b901c90505b610800821615610e2d576080610e28826fe7159475a2c29b7443b29c7fa6e889d961207f565b901c90505b611000821615610e58576080610e53826fd097f3bdfd2022b8845ad8f792aa582561207f565b901c90505b612000821615610e83576080610e7e826fa9f746462d870fdf8a65dc1f90e061e561207f565b901c90505b614000821615610eae576080610ea9826f70d869a156d2a1b890bb3df62baf32f761207f565b901c90505b618000821615610ed9576080610ed4826f31be135f97d08fd981231505542fcfa661207f565b901c90505b62010000821615610f05576080610f00826f09aa508b5b7a84e1c677de54f3e99bc961207f565b901c90505b62020000821615610f30576080610f2b826e5d6af8dedb81196699c329225ee60461207f565b901c90505b62040000821615610f5a576080610f55826d2216e584f5fa1ea926041bedfe9861207f565b901c90505b62080000821615610f82576080610f7d826b048a170391f7dc42444e8fa261207f565b901c90505b60008460020b1315610f9d57610f9a816000196120ac565b90505b610fac640100000000826120c0565b15610fb8576001610fbb565b60005b610fcc9060ff16602083901c6120d4565b949350505050565b6000836001600160a01b0316856001600160a01b03161115610ff4579293925b846001600160a01b0316866001600160a01b03161161101f57611018858585611336565b90506104cc565b836001600160a01b0316866001600160a01b03161015611081576000611046878686611336565b905060006110558789866113ab565b9050806001600160801b0316826001600160801b0316106110765780611078565b815b925050506104cc565b6104c98585846113ab565b6040516001600160a01b03808516602483015283166044820152606481018290526110f79085906323b872dd60e01b906084015b60408051601f198184030181529190526020810180516001600160e01b03166001600160e01b0319909316929092179091526113e1565b50505050565b611140816040516024016111119190611b1e565b60408051601f198184030181529190526020810180516001600160e01b031663104c13eb60e21b1790526114b6565b50565b600081600f0b12156111df576000546001600160a01b0316630b0d9c09833061116b85611bd6565b6040516001600160e01b031960e086901b1681526001600160a01b0393841660048201529290911660248301526001600160801b03166044820152606401600060405180830381600087803b1580156111c357600080fd5b505af11580156111d7573d6000803e3d6000fd5b505050505050565b6001600160a01b03821661127057600054604051636a256b2960e01b81526001600160a01b0390911690636a256b29906001600160801b03841690611228908690600401611b31565b60206040518083038185885af1158015611246573d6000803e3d6000fd5b50505050506040513d601f19601f8201168201806040525081019061126b9190611eab565b505050565b600054611293906001600160a01b0384811691166001600160801b038416611306565b600054604051636a256b2960e01b81526001600160a01b0390911690636a256b29906112c3908590600401611b31565b6020604051808303816000875af11580156112e2573d6000803e3d6000fd5b505050506040513d601f19601f8201168201806040525081019061126b9190611eab565b6040516001600160a01b03831660248201526044810182905261126b90849063a9059cbb60e01b906064016110c0565b6000826001600160a01b0316846001600160a01b03161115611356579192915b6000611379856001600160a01b0316856001600160a01b0316600160601b6114bf565b90506113a061139b848361138d89896120e7565b6001600160a01b03166114bf565b611643565b9150505b9392505050565b6000826001600160a01b0316846001600160a01b031611156113cb579192915b610fcc61139b83600160601b61138d88886120e7565b6000611436826040518060400160405280602081526020017f5361666545524332303a206c6f772d6c6576656c2063616c6c206661696c6564815250856001600160a01b031661165e9092919063ffffffff16565b9050805160001480611457575080806020019051810190611457919061210e565b61126b5760405162461bcd60e51b815260206004820152602a60248201527f5361666545524332303a204552433230206f7065726174696f6e20646964206e6044820152691bdd081cdd58d8d9595960b21b6064820152608401610c1e565b6111408161166d565b60008080600019858709858702925082811083820303915050806000036114f857600084116114ed57600080fd5b5082900490506113a4565b80841161150457600080fd5b6000848688098084039381119092039190506000856115258160001961212b565b6115309060016120d4565b16958690049593849004936000819003046001019050611550818461207f565b90931792600061156187600361207f565b6002189050611570818861207f565b61157b90600261212b565b611585908261207f565b9050611591818861207f565b61159c90600261212b565b6115a6908261207f565b90506115b2818861207f565b6115bd90600261212b565b6115c7908261207f565b90506115d3818861207f565b6115de90600261212b565b6115e8908261207f565b90506115f4818861207f565b6115ff90600261212b565b611609908261207f565b9050611615818861207f565b61162090600261212b565b61162a908261207f565b9050611636818661207f565b9998505050505050505050565b806001600160801b038116811461165957600080fd5b919050565b6060610fcc848460008561168e565b60006a636f6e736f6c652e6c6f679050600080835160208501845afa505050565b6060824710156116ef5760405162461bcd60e51b815260206004820152602660248201527f416464726573733a20696e73756666696369656e742062616c616e636520666f6044820152651c8818d85b1b60d21b6064820152608401610c1e565b600080866001600160a01b0316858760405161170b919061213e565b60006040518083038185875af1925050503d8060008114611748576040519150601f19603f3d011682016040523d82523d6000602084013e61174d565b606091505b509150915061175e87838387611769565b979650505050505050565b606083156117d85782516000036117d1576001600160a01b0385163b6117d15760405162461bcd60e51b815260206004820152601d60248201527f416464726573733a2063616c6c20746f206e6f6e2d636f6e74726163740000006044820152606401610c1e565b5081610fcc565b610fcc83838151156117ed5781518083602001fd5b8060405162461bcd60e51b8152600401610c1e9190611b1e565b8260028101928215611835579160200282015b8281111561183557825182559160200191906001019061181a565b50611841929150611845565b5090565b5b808211156118415760008155600101611846565b634e487b7160e01b600052604160045260246000fd5b6001600160a01b038116811461114057600080fd5b803562ffffff8116811461165957600080fd5b8060020b811461114057600080fd5b600060a082840312156118b957600080fd5b60405160a0810181811067ffffffffffffffff821117156118dc576118dc61185a565b60405290508082356118ed81611870565b815260208301356118fd81611870565b602082015261190e60408401611885565b6040820152606083013561192181611898565b6060820152608083013561193481611870565b6080919091015292915050565b600060a0828403121561195357600080fd5b6113a483836118a7565b600060a0828403121561196f57600080fd5b50919050565b600080600080610100858703121561198c57600080fd5b611996868661195d565b935060a08501356119a681611898565b925060c08501356119b681611898565b9396929550929360e00135925050565b60008060008061010085870312156119dd57600080fd5b6119e7868661195d565b9660a0860135965060c08601359560e00135945092505050565b600080600080600060a08688031215611a1957600080fd5b8535611a2481611898565b94506020860135611a3481611898565b93506040860135611a4481611898565b94979396509394606081013594506080013592915050565b60008060208385031215611a6f57600080fd5b823567ffffffffffffffff80821115611a8757600080fd5b818501915085601f830112611a9b57600080fd5b813581811115611aaa57600080fd5b866020828501011115611abc57600080fd5b60209290920196919550909350505050565b60005b83811015611ae9578181015183820152602001611ad1565b50506000910152565b60008151808452611b0a816020860160208601611ace565b601f01601f19169290920160200192915050565b6020815260006113a46020830184611af2565b6001600160a01b0391909116815260200190565b60006060828403121561196f57600080fd5b60008060006101208486031215611b6d57600080fd5b611b77858561195d565b9250611b868560a08601611b45565b915061010084013590509250925092565b600060208284031215611ba957600080fd5b81516001600160801b03811681146113a457600080fd5b634e487b7160e01b600052601160045260246000fd5b6000600f82900b6001607f1b8101611bf057611bf0611bc0565b60000392915050565b8035611c0481611870565b6001600160a01b039081168352602082013590611c2082611870565b808216602085015262ffffff611c3860408501611885565b16604085015260608301359150611c4e82611898565b8160020b606085015260808301359150611c6782611870565b808216608085015250505050565b6001600160a01b03861681526101208101611c936020830187611bf9565b60ff851660c08301528360e0830152826101008301529695505050505050565b600060208284031215611cc557600080fd5b815167ffffffffffffffff80821115611cdd57600080fd5b818401915084601f830112611cf157600080fd5b815181811115611d0357611d0361185a565b604051601f8201601f19908116603f01168101908382118183101715611d2b57611d2b61185a565b81604052828152876020848701011115611d4457600080fd5b61175e836020830160208801611ace565b8051600f81900b811461165957600080fd5b60008060408385031215611d7a57600080fd5b611d8383611d55565b9150611d9160208401611d55565b90509250929050565b60008060408385031215611dad57600080fd5b505080516020909101519092909150565b60008060008060006101208688031215611dd757600080fd5b8535611de281611870565b9450611df187602088016118a7565b949794965050505060c08301359260e081013592610100909101359150565b80516001600160a01b03908116835260208083015182169084015260408083015162ffffff169084015260608083015160020b9084015260809182015116910152565b6002815261060f60f31b602082015260400190565b6000610120611e778386611e10565b83548060020b60a08501528060181c60020b60c085015250600184015460e0840152806101008401526113a0818401611e53565b600060208284031215611ebd57600080fd5b5051919050565b600060018201611ed657611ed6611bc0565b5060010190565b6000610120611eec8386611e10565b835460ff16151560a0840152600184015460c084015260028401546001600160a01b031660e084015261010083018190526113a0818401611e53565b6000610100611f378387611e10565b8460a08401528360c08401528060e0840152611f54818401611e53565b9695505050505050565b801515811461114057600080fd5b8135611f7781611f5e565b815490151560ff1660ff199190911617815560208201356001820155600281016040830135611fa581611870565b81546001600160a01b0319166001600160a01b03919091161790555050565b8135611fcf81611898565b815462ffffff82811662ffffff1983161784556020850135611ff081611898565b8060181b65ffffff0000001682851665ffffffffffff1985161717855550505050604082013560018201555050565b60006020828403121561203157600080fd5b81356113a481611898565b60a081016101bb8284611e10565b6000600160ff1b820161205f5761205f611bc0565b5060000390565b60008160020b627fffff198103611bf057611bf0611bc0565b80820281158282048414176101bb576101bb611bc0565b634e487b7160e01b600052601260045260246000fd5b6000826120bb576120bb612096565b500490565b6000826120cf576120cf612096565b500690565b808201808211156101bb576101bb611bc0565b6001600160a01b0382811682821603908082111561210757612107611bc0565b5092915050565b60006020828403121561212057600080fd5b81516113a481611f5e565b818103818111156101bb576101bb611bc0565b60008251612150818460208701611ace565b919091019291505056fea26469706673582212201d6740c02480becb05c79f8e2b2c70bff9bca571b053638d03ce7221d0171ba264736f6c63430008140033",
  "linkReferences": {},
  "deployedLinkReferences": {}
}