{
  "_format": "hh-sol-artifact-1",
  "contractName": "MyHook",
  "sourceName": "contracts/MyHook.sol",
  "abi": [
    {
      "inputs": [
        {
          "internalType": "address",
          "name": "_poolManager",
          "type": "address"
        }
      ],
      "stateMutability": "nonpayable",
      "type": "constructor"
    },
    {
      "inputs": [
        {
          "internalType": "address",
          "name": "hooks",
          "type": "address"
        }
      ],
      "name": "HookAddressNotValid",
      "type": "error"
    },
    {
      "inputs": [],
      "name": "HookNotImplemented",
      "type": "error"
    },
    {
      "inputs": [],
      "name": "InvalidPool",
      "type": "error"
    },
    {
      "inputs": [],
      "name": "LockFailure",
      "type": "error"
    },
    {
      "inputs": [],
      "name": "NotPoolManager",
      "type": "error"
    },
    {
      "inputs": [],
      "name": "NotSelf",
      "type": "error"
    },
    {
      "inputs": [
        {
          "internalType": "address",
          "name": "",
          "type": "address"
        },
        {
          "components": [
            {
              "internalType": "Currency",
              "name": "currency0",
              "type": "address"
            },
            {
              "internalType": "Currency",
              "name": "currency1",
              "type": "address"
            },
            {
              "internalType": "uint24",
              "name": "fee",
              "type": "uint24"
            },
            {
              "internalType": "int24",
              "name": "tickSpacing",
              "type": "int24"
            },
            {
              "internalType": "contract IHooks",
              "name": "hooks",
              "type": "address"
            }
          ],
          "internalType": "struct PoolKey",
          "name": "",
          "type": "tuple"
        },
        {
          "internalType": "uint256",
          "name": "",
          "type": "uint256"
        },
        {
          "internalType": "uint256",
          "name": "",
          "type": "uint256"
        },
        {
          "internalType": "bytes",
          "name": "",
          "type": "bytes"
        }
      ],
      "name": "afterDonate",
      "outputs": [
        {
          "internalType": "bytes4",
          "name": "",
          "type": "bytes4"
        }
      ],
      "stateMutability": "pure",
      "type": "function"
    },
    {
      "inputs": [
        {
          "internalType": "address",
          "name": "",
          "type": "address"
        },
        {
          "components": [
            {
              "internalType": "Currency",
              "name": "currency0",
              "type": "address"
            },
            {
              "internalType": "Currency",
              "name": "currency1",
              "type": "address"
            },
            {
              "internalType": "uint24",
              "name": "fee",
              "type": "uint24"
            },
            {
              "internalType": "int24",
              "name": "tickSpacing",
              "type": "int24"
            },
            {
              "internalType": "contract IHooks",
              "name": "hooks",
              "type": "address"
            }
          ],
          "internalType": "struct PoolKey",
          "name": "",
          "type": "tuple"
        },
        {
          "internalType": "uint160",
          "name": "",
          "type": "uint160"
        },
        {
          "internalType": "int24",
          "name": "",
          "type": "int24"
        },
        {
          "internalType": "bytes",
          "name": "",
          "type": "bytes"
        }
      ],
      "name": "afterInitialize",
      "outputs": [
        {
          "internalType": "bytes4",
          "name": "",
          "type": "bytes4"
        }
      ],
      "stateMutability": "pure",
      "type": "function"
    },
    {
      "inputs": [
        {
          "internalType": "address",
          "name": "",
          "type": "address"
        },
        {
          "components": [
            {
              "internalType": "Currency",
              "name": "currency0",
              "type": "address"
            },
            {
              "internalType": "Currency",
              "name": "currency1",
              "type": "address"
            },
            {
              "internalType": "uint24",
              "name": "fee",
              "type": "uint24"
            },
            {
              "internalType": "int24",
              "name": "tickSpacing",
              "type": "int24"
            },
            {
              "internalType": "contract IHooks",
              "name": "hooks",
              "type": "address"
            }
          ],
          "internalType": "struct PoolKey",
          "name": "",
          "type": "tuple"
        },
        {
          "components": [
            {
              "internalType": "int24",
              "name": "tickLower",
              "type": "int24"
            },
            {
              "internalType": "int24",
              "name": "tickUpper",
              "type": "int24"
            },
            {
              "internalType": "int256",
              "name": "liquidityDelta",
              "type": "int256"
            }
          ],
          "internalType": "struct IPoolManager.ModifyPositionParams",
          "name": "",
          "type": "tuple"
        },
        {
          "internalType": "BalanceDelta",
          "name": "",
          "type": "int256"
        },
        {
          "internalType": "bytes",
          "name": "",
          "type": "bytes"
        }
      ],
      "name": "afterModifyPosition",
      "outputs": [
        {
          "internalType": "bytes4",
          "name": "",
          "type": "bytes4"
        }
      ],
      "stateMutability": "pure",
      "type": "function"
    },
    {
      "inputs": [
        {
          "internalType": "address",
          "name": "",
          "type": "address"
        },
        {
          "components": [
            {
              "internalType": "Currency",
              "name": "currency0",
              "type": "address"
            },
            {
              "internalType": "Currency",
              "name": "currency1",
              "type": "address"
            },
            {
              "internalType": "uint24",
              "name": "fee",
              "type": "uint24"
            },
            {
              "internalType": "int24",
              "name": "tickSpacing",
              "type": "int24"
            },
            {
              "internalType": "contract IHooks",
              "name": "hooks",
              "type": "address"
            }
          ],
          "internalType": "struct PoolKey",
          "name": "",
          "type": "tuple"
        },
        {
          "components": [
            {
              "internalType": "bool",
              "name": "zeroForOne",
              "type": "bool"
            },
            {
              "internalType": "int256",
              "name": "amountSpecified",
              "type": "int256"
            },
            {
              "internalType": "uint160",
              "name": "sqrtPriceLimitX96",
              "type": "uint160"
            }
          ],
          "internalType": "struct IPoolManager.SwapParams",
          "name": "",
          "type": "tuple"
        },
        {
          "internalType": "BalanceDelta",
          "name": "",
          "type": "int256"
        },
        {
          "internalType": "bytes",
          "name": "",
          "type": "bytes"
        }
      ],
      "name": "afterSwap",
      "outputs": [
        {
          "internalType": "bytes4",
          "name": "",
          "type": "bytes4"
        }
      ],
      "stateMutability": "pure",
      "type": "function"
    },
    {
      "inputs": [
        {
          "internalType": "address",
          "name": "",
          "type": "address"
        },
        {
          "components": [
            {
              "internalType": "Currency",
              "name": "currency0",
              "type": "address"
            },
            {
              "internalType": "Currency",
              "name": "currency1",
              "type": "address"
            },
            {
              "internalType": "uint24",
              "name": "fee",
              "type": "uint24"
            },
            {
              "internalType": "int24",
              "name": "tickSpacing",
              "type": "int24"
            },
            {
              "internalType": "contract IHooks",
              "name": "hooks",
              "type": "address"
            }
          ],
          "internalType": "struct PoolKey",
          "name": "",
          "type": "tuple"
        },
        {
          "internalType": "uint256",
          "name": "",
          "type": "uint256"
        },
        {
          "internalType": "uint256",
          "name": "",
          "type": "uint256"
        },
        {
          "internalType": "bytes",
          "name": "",
          "type": "bytes"
        }
      ],
      "name": "beforeDonate",
      "outputs": [
        {
          "internalType": "bytes4",
          "name": "",
          "type": "bytes4"
        }
      ],
      "stateMutability": "pure",
      "type": "function"
    },
    {
      "inputs": [
        {
          "internalType": "address",
          "name": "",
          "type": "address"
        },
        {
          "components": [
            {
              "internalType": "Currency",
              "name": "currency0",
              "type": "address"
            },
            {
              "internalType": "Currency",
              "name": "currency1",
              "type": "address"
            },
            {
              "internalType": "uint24",
              "name": "fee",
              "type": "uint24"
            },
            {
              "internalType": "int24",
              "name": "tickSpacing",
              "type": "int24"
            },
            {
              "internalType": "contract IHooks",
              "name": "hooks",
              "type": "address"
            }
          ],
          "internalType": "struct PoolKey",
          "name": "",
          "type": "tuple"
        },
        {
          "internalType": "uint160",
          "name": "",
          "type": "uint160"
        },
        {
          "internalType": "bytes",
          "name": "",
          "type": "bytes"
        }
      ],
      "name": "beforeInitialize",
      "outputs": [
        {
          "internalType": "bytes4",
          "name": "",
          "type": "bytes4"
        }
      ],
      "stateMutability": "pure",
      "type": "function"
    },
    {
      "inputs": [
        {
          "internalType": "address",
          "name": "",
          "type": "address"
        },
        {
          "components": [
            {
              "internalType": "Currency",
              "name": "currency0",
              "type": "address"
            },
            {
              "internalType": "Currency",
              "name": "currency1",
              "type": "address"
            },
            {
              "internalType": "uint24",
              "name": "fee",
              "type": "uint24"
            },
            {
              "internalType": "int24",
              "name": "tickSpacing",
              "type": "int24"
            },
            {
              "internalType": "contract IHooks",
              "name": "hooks",
              "type": "address"
            }
          ],
          "internalType": "struct PoolKey",
          "name": "",
          "type": "tuple"
        },
        {
          "components": [
            {
              "internalType": "int24",
              "name": "tickLower",
              "type": "int24"
            },
            {
              "internalType": "int24",
              "name": "tickUpper",
              "type": "int24"
            },
            {
              "internalType": "int256",
              "name": "liquidityDelta",
              "type": "int256"
            }
          ],
          "internalType": "struct IPoolManager.ModifyPositionParams",
          "name": "",
          "type": "tuple"
        },
        {
          "internalType": "bytes",
          "name": "",
          "type": "bytes"
        }
      ],
      "name": "beforeModifyPosition",
      "outputs": [
        {
          "internalType": "bytes4",
          "name": "",
          "type": "bytes4"
        }
      ],
      "stateMutability": "pure",
      "type": "function"
    },
    {
      "inputs": [
        {
          "internalType": "address",
          "name": "",
          "type": "address"
        },
        {
          "components": [
            {
              "internalType": "Currency",
              "name": "currency0",
              "type": "address"
            },
            {
              "internalType": "Currency",
              "name": "currency1",
              "type": "address"
            },
            {
              "internalType": "uint24",
              "name": "fee",
              "type": "uint24"
            },
            {
              "internalType": "int24",
              "name": "tickSpacing",
              "type": "int24"
            },
            {
              "internalType": "contract IHooks",
              "name": "hooks",
              "type": "address"
            }
          ],
          "internalType": "struct PoolKey",
          "name": "",
          "type": "tuple"
        },
        {
          "components": [
            {
              "internalType": "bool",
              "name": "zeroForOne",
              "type": "bool"
            },
            {
              "internalType": "int256",
              "name": "amountSpecified",
              "type": "int256"
            },
            {
              "internalType": "uint160",
              "name": "sqrtPriceLimitX96",
              "type": "uint160"
            }
          ],
          "internalType": "struct IPoolManager.SwapParams",
          "name": "",
          "type": "tuple"
        },
        {
          "internalType": "bytes",
          "name": "",
          "type": "bytes"
        }
      ],
      "name": "beforeSwap",
      "outputs": [
        {
          "internalType": "bytes4",
          "name": "",
          "type": "bytes4"
        }
      ],
      "stateMutability": "pure",
      "type": "function"
    },
    {
      "inputs": [],
      "name": "count",
      "outputs": [
        {
          "internalType": "uint256",
          "name": "",
          "type": "uint256"
        }
      ],
      "stateMutability": "view",
      "type": "function"
    },
    {
      "inputs": [
        {
          "internalType": "address",
          "name": "",
          "type": "address"
        },
        {
          "components": [
            {
              "internalType": "Currency",
              "name": "currency0",
              "type": "address"
            },
            {
              "internalType": "Currency",
              "name": "currency1",
              "type": "address"
            },
            {
              "internalType": "uint24",
              "name": "fee",
              "type": "uint24"
            },
            {
              "internalType": "int24",
              "name": "tickSpacing",
              "type": "int24"
            },
            {
              "internalType": "contract IHooks",
              "name": "hooks",
              "type": "address"
            }
          ],
          "internalType": "struct PoolKey",
          "name": "",
          "type": "tuple"
        }
      ],
      "name": "getFee",
      "outputs": [
        {
          "internalType": "uint24",
          "name": "",
          "type": "uint24"
        }
      ],
      "stateMutability": "pure",
      "type": "function"
    },
    {
      "inputs": [
        {
          "components": [
            {
              "internalType": "Currency",
              "name": "currency0",
              "type": "address"
            },
            {
              "internalType": "Currency",
              "name": "currency1",
              "type": "address"
            },
            {
              "internalType": "uint24",
              "name": "fee",
              "type": "uint24"
            },
            {
              "internalType": "int24",
              "name": "tickSpacing",
              "type": "int24"
            },
            {
              "internalType": "contract IHooks",
              "name": "hooks",
              "type": "address"
            }
          ],
          "internalType": "struct PoolKey",
          "name": "",
          "type": "tuple"
        }
      ],
      "name": "getHookFees",
      "outputs": [
        {
          "internalType": "uint24",
          "name": "",
          "type": "uint24"
        }
      ],
      "stateMutability": "pure",
      "type": "function"
    },
    {
      "inputs": [],
      "name": "getHooksCalls",
      "outputs": [
        {
          "components": [
            {
              "internalType": "bool",
              "name": "beforeInitialize",
              "type": "bool"
            },
            {
              "internalType": "bool",
              "name": "afterInitialize",
              "type": "bool"
            },
            {
              "internalType": "bool",
              "name": "beforeModifyPosition",
              "type": "bool"
            },
            {
              "internalType": "bool",
              "name": "afterModifyPosition",
              "type": "bool"
            },
            {
              "internalType": "bool",
              "name": "beforeSwap",
              "type": "bool"
            },
            {
              "internalType": "bool",
              "name": "afterSwap",
              "type": "bool"
            },
            {
              "internalType": "bool",
              "name": "beforeDonate",
              "type": "bool"
            },
            {
              "internalType": "bool",
              "name": "afterDonate",
              "type": "bool"
            }
          ],
          "internalType": "struct Hooks.Calls",
          "name": "",
          "type": "tuple"
        }
      ],
      "stateMutability": "pure",
      "type": "function"
    },
    {
      "inputs": [
        {
          "internalType": "bytes",
          "name": "data",
          "type": "bytes"
        }
      ],
      "name": "lockAcquired",
      "outputs": [
        {
          "internalType": "bytes",
          "name": "",
          "type": "bytes"
        }
      ],
      "stateMutability": "nonpayable",
      "type": "function"
    },
    {
      "inputs": [],
      "name": "poolManager",
      "outputs": [
        {
          "internalType": "contract IPoolManager",
          "name": "",
          "type": "address"
        }
      ],
      "stateMutability": "view",
      "type": "function"
    },
    {
      "inputs": [
        {
          "components": [
            {
              "internalType": "Currency",
              "name": "currency0",
              "type": "address"
            },
            {
              "internalType": "Currency",
              "name": "currency1",
              "type": "address"
            },
            {
              "internalType": "uint24",
              "name": "fee",
              "type": "uint24"
            },
            {
              "internalType": "int24",
              "name": "tickSpacing",
              "type": "int24"
            },
            {
              "internalType": "contract IHooks",
              "name": "hooks",
              "type": "address"
            }
          ],
          "internalType": "struct PoolKey",
          "name": "",
          "type": "tuple"
        }
      ],
      "name": "protocolFeesForPool",
      "outputs": [
        {
          "internalType": "uint24",
          "name": "",
          "type": "uint24"
        }
      ],
      "stateMutability": "pure",
      "type": "function"
    },
    {
      "stateMutability": "payable",
      "type": "receive"
    }
  ],
  "bytecode": "0x60a060405234801561001057600080fd5b50604051610f49380380610f4983398101604081905261002f916101d1565b6001600160a01b038116608052806100463061004d565b5050610201565b6100df816100da6040805161010081018252600080825260208201819052918101829052606081018290526080810182905260a0810182905260c0810182905260e0810191909152506040805161010081018252600180825260208201819052918101829052606081018290526080810182905260a0810182905260c0810182905260e081019190915290565b6100e2565b50565b805115156001609f1b8316151514158061010a5750602081015115156001609e1b8316151514155b806101235750604081015115156001609d1b8316151514155b8061013c5750606081015115156001609c1b8316151514155b806101555750608081015115156001609b1b8316151514155b8061016e575060a081015115156001609a1b8316151514155b80610187575060c08101511515600160991b8316151514155b806101a0575060e08101511515600160981b8316151514155b156101cd57604051630732d7b560e51b81526001600160a01b038316600482015260240160405180910390fd5b5050565b6000602082840312156101e357600080fd5b81516001600160a01b03811681146101fa57600080fd5b9392505050565b608051610d2661022360003960008181610330015261051a0152610d266000f3fe6080604052600436106100cc5760003560e01c8063a910f80f1161007a578063a910f80f14610271578063ab6291fe14610291578063b47b2fb1146102be578063b6a8b0fa146102de578063d6ec4585146102fe578063dc4c90d31461031e578063e1b4af691461036a578063fe9a6f451461038a57600080fd5b806306661abd146100d85780630a43ce891461010157806330b7cdef146101355780633440d8201461016e578063575e24b41461018e5780635ae4ce58146101ae578063612c39b7146101ce57600080fd5b366100d357005b600080fd5b3480156100e457600080fd5b506100ee60005481565b6040519081526020015b60405180910390f35b34801561010d57600080fd5b5061012161011c3660046107ac565b6103aa565b60405162ffffff90911681526020016100f8565b34801561014157600080fd5b5061015561015036600461083c565b6103ef565b6040516001600160e01b031990911681526020016100f8565b34801561017a57600080fd5b506101556101893660046108c1565b610425565b34801561019a57600080fd5b506101556101a936600461093c565b61045a565b3480156101ba57600080fd5b506101216101c936600461099a565b61048f565b3480156101da57600080fd5b506102646040805161010081018252600080825260208201819052918101829052606081018290526080810182905260a0810182905260c0810182905260e0810191909152506040805161010081018252600180825260208201819052918101829052606081018290526080810182905260a0810182905260c0810182905260e081019190915290565b6040516100f891906109bd565b34801561027d57600080fd5b5061015561028c366004610a46565b6104d7565b34801561029d57600080fd5b506102b16102ac366004610abd565b61050d565b6040516100f89190610b44565b3480156102ca57600080fd5b506101556102d936600461083c565b6105f5565b3480156102ea57600080fd5b506101556102f9366004610b57565b61062b565b34801561030a57600080fd5b5061012161031936600461099a565b610661565b34801561032a57600080fd5b506103527f000000000000000000000000000000000000000000000000000000000000000081565b6040516001600160a01b0390911681526020016100f8565b34801561037657600080fd5b50610155610385366004610b57565b6106a9565b34801561039657600080fd5b506101556103a536600461093c565b6106df565b60006103e46040518060400160405280601781526020017646726f6d20486f6f6b202d2046656520476f7474656e2160481b815250610714565b506127105b92915050565b6000610412604051806060016040528060228152602001610c5d60229139610714565b506330b7cdef60e01b9695505050505050565b60006104486040518060600160405280602c8152602001610cc5602c9139610714565b506301a206c160e51b95945050505050565b600061047d604051806060016040528060258152602001610c7f60259139610714565b506315d7892d60e21b95945050505050565b60006104cf6040518060400160405280601c81526020017f46726f6d20486f6f6b202d20486f6f6b2046656520476f7474656e2100000000815250610714565b506064919050565b60006104fa604051806060016040528060268152602001610c3760269139610714565b5063a910f80f60e01b9695505050505050565b6060336001600160a01b037f000000000000000000000000000000000000000000000000000000000000000016146105585760405163570c108560e11b815260040160405180910390fd5b600080306001600160a01b03168585604051610575929190610bb5565b6000604051808303816000865af19150503d80600081146105b2576040519150601f19603f3d011682016040523d82523d6000602084013e6105b7565b606091505b509150915081156105cb5791506103e99050565b80516000036105ed576040516314815f4760e31b815260040160405180910390fd5b805160208201fd5b6000610618604051806060016040528060218152602001610ca460219139610714565b5063b47b2fb160e01b9695505050505050565b600061064e604051806060016040528060278152602001610bea60279139610714565b50635b54587d60e11b9695505050505050565b60006106a16040518060400160405280602081526020017f46726f6d20486f6f6b202d2050726f746f636f6c2046656520476f7474656e21815250610714565b50600a919050565b60006106cc604051806060016040528060248152602001610bc660249139610714565b5063e1b4af6960e01b9695505050505050565b6000610702604051806060016040528060268152602001610c1160269139610714565b5063fe9a6f4560e01b95945050505050565b610757816040516024016107289190610b44565b60408051601f198184030181529190526020810180516001600160e01b031663104c13eb60e21b17905261075a565b50565b6107578160006a636f6e736f6c652e6c6f679050600080835160208501845afa505050565b6001600160a01b038116811461075757600080fd5b600060a082840312156107a657600080fd5b50919050565b60008060c083850312156107bf57600080fd5b82356107ca8161077f565b91506107d98460208501610794565b90509250929050565b6000606082840312156107a657600080fd5b60008083601f84011261080657600080fd5b5081356001600160401b0381111561081d57600080fd5b60208301915083602082850101111561083557600080fd5b9250929050565b600080600080600080610160878903121561085657600080fd5b86356108618161077f565b95506108708860208901610794565b945061087f8860c089016107e2565b935061012087013592506101408701356001600160401b038111156108a357600080fd5b6108af89828a016107f4565b979a9699509497509295939492505050565b600080600080600061010086880312156108da57600080fd5b85356108e58161077f565b94506108f48760208801610794565b935060c08601356109048161077f565b925060e08601356001600160401b0381111561091f57600080fd5b61092b888289016107f4565b969995985093965092949392505050565b6000806000806000610140868803121561095557600080fd5b85356109608161077f565b945061096f8760208801610794565b935061097e8760c088016107e2565b92506101208601356001600160401b0381111561091f57600080fd5b600060a082840312156109ac57600080fd5b6109b68383610794565b9392505050565b6000610100820190508251151582526020830151151560208301526040830151151560408301526060830151151560608301526080830151610a03608084018215159052565b5060a0830151610a1760a084018215159052565b5060c0830151610a2b60c084018215159052565b5060e0830151610a3f60e084018215159052565b5092915050565b6000806000806000806101208789031215610a6057600080fd5b8635610a6b8161077f565b9550610a7a8860208901610794565b945060c0870135610a8a8161077f565b935060e0870135600281900b8114610aa157600080fd5b92506101008701356001600160401b038111156108a357600080fd5b60008060208385031215610ad057600080fd5b82356001600160401b03811115610ae657600080fd5b610af2858286016107f4565b90969095509350505050565b6000815180845260005b81811015610b2457602081850181015186830182015201610b08565b506000602082860101526020601f19601f83011685010191505092915050565b6020815260006109b66020830184610afe565b6000806000806000806101208789031215610b7157600080fd5b8635610b7c8161077f565b9550610b8b8860208901610794565b945060c0870135935060e087013592506101008701356001600160401b038111156108a357600080fd5b818382376000910190815291905056fe46726f6d20486f6f6b202d204120646f6e6174696f6e20776173206a757374206d61646546726f6d20486f6f6b202d204120646f6e6174696f6e2069732061626f757420746f206d61646546726f6d20486f6f6b202d2041206d6f64696669636169746f6e2077696c6c206f636375722146726f6d20486f6f6b202d20506f6f6c20776173206a75737420696e697469616c697a65642146726f6d20486f6f6b202d20506f6f6c20776173206a757374206d6f64696669656446726f6d20486f6f6b202d204120737761702069732061626f757420746f206f636375722146726f6d20486f6f6b202d20412073776170206a757374206f636375727265642146726f6d20486f6f6b202d20506f6f6c2069732061626f757420746f20626520696e697469616c697a656421a26469706673582212202219d379f42fe2bfb43b4ebfbb62f0f5a9c5c6dfcdd1628f2f8c37a33bb2e29d64736f6c63430008140033",
  "linkReferences": {},
  "deployedLinkReferences": {}
}